{"abi":[{"type":"constructor","inputs":[{"name":"initialOwner","type":"address","internalType":"address"},{"name":"vault_","type":"address","internalType":"contract IOrderBookVault"},{"name":"poolManager_","type":"address","internalType":"contract IPoolManager"},{"name":"hook_","type":"address","internalType":"contract ILargeCapExecutionHookEvents"}],"stateMutability":"nonpayable"},{"type":"receive","stateMutability":"payable"},{"type":"function","name":"acceptOwnership","inputs":[],"outputs":[],"stateMutability":"nonpayable"},{"type":"function","name":"executeNextSlice","inputs":[{"name":"params","type":"tuple","internalType":"struct Executor.ExecuteParams","components":[{"name":"orderId","type":"bytes32","internalType":"bytes32"},{"name":"poolKey","type":"tuple","internalType":"struct PoolKey","components":[{"name":"currency0","type":"address","internalType":"Currency"},{"name":"currency1","type":"address","internalType":"Currency"},{"name":"fee","type":"uint24","internalType":"uint24"},{"name":"tickSpacing","type":"int24","internalType":"int24"},{"name":"hooks","type":"address","internalType":"contract IHooks"}]},{"name":"observedImpactBps","type":"uint24","internalType":"uint24"},{"name":"sqrtPriceLimitX96","type":"uint160","internalType":"uint160"},{"name":"deadline","type":"uint40","internalType":"uint40"}]}],"outputs":[{"name":"executed","type":"bool","internalType":"bool"},{"name":"reasonCode","type":"uint8","internalType":"enum ReasonCode"},{"name":"amountOut","type":"uint128","internalType":"uint128"}],"stateMutability":"nonpayable"},{"type":"function","name":"hook","inputs":[],"outputs":[{"name":"","type":"address","internalType":"contract ILargeCapExecutionHookEvents"}],"stateMutability":"view"},{"type":"function","name":"owner","inputs":[],"outputs":[{"name":"","type":"address","internalType":"address"}],"stateMutability":"view"},{"type":"function","name":"pendingOwner","inputs":[],"outputs":[{"name":"","type":"address","internalType":"address"}],"stateMutability":"view"},{"type":"function","name":"poolManager","inputs":[],"outputs":[{"name":"","type":"address","internalType":"contract IPoolManager"}],"stateMutability":"view"},{"type":"function","name":"renounceOwnership","inputs":[],"outputs":[],"stateMutability":"nonpayable"},{"type":"function","name":"transferOwnership","inputs":[{"name":"newOwner","type":"address","internalType":"address"}],"outputs":[],"stateMutability":"nonpayable"},{"type":"function","name":"unlockCallback","inputs":[{"name":"rawData","type":"bytes","internalType":"bytes"}],"outputs":[{"name":"","type":"bytes","internalType":"bytes"}],"stateMutability":"nonpayable"},{"type":"function","name":"vault","inputs":[],"outputs":[{"name":"","type":"address","internalType":"contract IOrderBookVault"}],"stateMutability":"view"},{"type":"event","name":"OwnershipTransferStarted","inputs":[{"name":"previousOwner","type":"address","indexed":true,"internalType":"address"},{"name":"newOwner","type":"address","indexed":true,"internalType":"address"}],"anonymous":false},{"type":"event","name":"OwnershipTransferred","inputs":[{"name":"previousOwner","type":"address","indexed":true,"internalType":"address"},{"name":"newOwner","type":"address","indexed":true,"internalType":"address"}],"anonymous":false},{"type":"event","name":"SliceExecutionAttempt","inputs":[{"name":"orderId","type":"bytes32","indexed":true,"internalType":"bytes32"},{"name":"sliceIndex","type":"uint64","indexed":true,"internalType":"uint64"},{"name":"amountIn","type":"uint128","indexed":false,"internalType":"uint128"}],"anonymous":false},{"type":"event","name":"SliceExecutionResult","inputs":[{"name":"orderId","type":"bytes32","indexed":true,"internalType":"bytes32"},{"name":"sliceIndex","type":"uint64","indexed":true,"internalType":"uint64"},{"name":"executed","type":"bool","indexed":false,"internalType":"bool"},{"name":"reasonCode","type":"uint8","indexed":false,"internalType":"enum ReasonCode"},{"name":"amountOut","type":"uint128","indexed":false,"internalType":"uint128"}],"anonymous":false},{"type":"error","name":"AddressEmptyCode","inputs":[{"name":"target","type":"address","internalType":"address"}]},{"type":"error","name":"AddressInsufficientBalance","inputs":[{"name":"account","type":"address","internalType":"address"}]},{"type":"error","name":"Executor__InvalidDeadline","inputs":[]},{"type":"error","name":"Executor__NotPoolManager","inputs":[]},{"type":"error","name":"Executor__UnexpectedUnlockResponse","inputs":[]},{"type":"error","name":"FailedInnerCall","inputs":[]},{"type":"error","name":"OwnableInvalidOwner","inputs":[{"name":"owner","type":"address","internalType":"address"}]},{"type":"error","name":"OwnableUnauthorizedAccount","inputs":[{"name":"account","type":"address","internalType":"address"}]},{"type":"error","name":"ReentrancyGuardReentrantCall","inputs":[]},{"type":"error","name":"SafeERC20FailedOperation","inputs":[{"name":"token","type":"address","internalType":"address"}]}],"bytecode":{"object":"0x60e060405234801561000f575f5ffd5b50604051611e05380380611e0583398101604081905261002e91610108565b836001600160a01b03811661005c57604051631e4fbdf760e01b81525f600482015260240160405180910390fd5b61006581610089565b5060016002556001600160a01b0392831660805290821660a0521660c05250610164565b600180546001600160a01b03191690556100a2816100a5565b50565b5f80546001600160a01b038381166001600160a01b0319831681178455604051919092169283917f8be0079c531659141344cd1fd0a4f28419497f9722a3daafe3b4186f6b6457e09190a35050565b6001600160a01b03811681146100a2575f5ffd5b5f5f5f5f6080858703121561011b575f5ffd5b8451610126816100f4565b6020860151909450610137816100f4565b6040860151909350610148816100f4565b6060860151909250610159816100f4565b939692955090935050565b60805160a05160c051611c0f6101f65f395f818160d8015281816106aa0152610b0701525f818161017001528181610298015281816102e8015281816103ad0152818161041501528181610474015281816104e201526109a001525f818161020d0152818161043601528181610503015281816105a70152818161078501528181610a1b0152610a900152611c0f5ff3fe608060405260043610610092575f3560e01c8063dc4c90d311610057578063dc4c90d31461015f578063dee7324414610192578063e30c3978146101c0578063f2fde38b146101dd578063fbfa77cf146101fc575f5ffd5b8063715018a61461009d57806379ba5097146100b35780637f5a7c7b146100c75780638da5cb5b1461011757806391dd734614610133575f5ffd5b3661009957005b5f5ffd5b3480156100a8575f5ffd5b506100b161022f565b005b3480156100be575f5ffd5b506100b1610242565b3480156100d2575f5ffd5b506100fa7f000000000000000000000000000000000000000000000000000000000000000081565b6040516001600160a01b0390911681526020015b60405180910390f35b348015610122575f5ffd5b505f546001600160a01b03166100fa565b34801561013e575f5ffd5b5061015261014d36600461128f565b61028b565b60405161010e9190611329565b34801561016a575f5ffd5b506100fa7f000000000000000000000000000000000000000000000000000000000000000081565b34801561019d575f5ffd5b506101b16101ac36600461133b565b610558565b60405161010e93929190611389565b3480156101cb575f5ffd5b506001546001600160a01b03166100fa565b3480156101e8575f5ffd5b506100b16101f73660046113ca565b610cc3565b348015610207575f5ffd5b506100fa7f000000000000000000000000000000000000000000000000000000000000000081565b610237610d33565b6102405f610d5f565b565b60015433906001600160a01b0316811461027f5760405163118cdaa760e01b81526001600160a01b03821660048201526024015b60405180910390fd5b61028881610d5f565b50565b6060336001600160a01b037f000000000000000000000000000000000000000000000000000000000000000016146102d65760405163db224d8d60e01b815260040160405180910390fd5b5f6102e3838501856115a8565b90505f7f00000000000000000000000000000000000000000000000000000000000000006001600160a01b031663f3cd914c835f0151846020015185604001516040518463ffffffff1660e01b8152600401610341939291906116bb565b6020604051808303815f875af115801561035d573d5f5f3e3d5ffd5b505050506040513d601f19601f82011682018060405250810190610381919061170c565b90505f61038e8260801d90565b90505f61039b83600f0b90565b90505f82600f0b12156103f8576103f37f0000000000000000000000000000000000000000000000000000000000000000306103d685611737565b8751516001600160a01b03169291906001600160801b0316610d78565b610464565b5f82600f0b131561046457835151610464906001600160a01b03167f00000000000000000000000000000000000000000000000000000000000000007f00000000000000000000000000000000000000000000000000000000000000006001600160801b038616610fbd565b5f81600f0b12156104c2576104bd7f00000000000000000000000000000000000000000000000000000000000000003061049d84611737565b8751602001516001600160a01b03169291906001600160801b0316610d78565b610531565b5f81600f0b131561053157835160200151610531906001600160a01b03167f00000000000000000000000000000000000000000000000000000000000000007f00000000000000000000000000000000000000000000000000000000000000006001600160801b038516610fbd565b60408051602081018590520160405160208183030381529060405294505050505092915050565b5f5f5f61056361102e565b4261057661012086016101008701611776565b64ffffffffff16101561059c57604051636388581d60e01b815260040160405180910390fd5b5f6001600160a01b037f000000000000000000000000000000000000000000000000000000000000000016633ca9cc7d86356105ea6105e3368a90038a0160208b01611791565b60a0902090565b6105fa60e08a0160c08b016117ab565b6040516001600160e01b031960e086901b1681526004810193909352602483019190915262ffffff1660448201523360648201526084016080604051808303815f875af115801561064d573d5f5f3e3d5ffd5b505050506040513d601f19601f8201168201806040525081019061067191906117f7565b90505f8151600881111561068757610687611355565b1461076d576060810151815160405163919d8bfd60e01b81526001600160a01b037f0000000000000000000000000000000000000000000000000000000000000000169263919d8bfd926106e2928a35929190600401611878565b5f604051808303815f87803b1580156106f9575f5ffd5b505af115801561070b573d5f5f3e3d5ffd5b5050505080606001516001600160401b0316855f01357fdf7df68fddb55e38a4b636bbd972bdf7820a2a1b99e9531fe805a52f90a7e99d5f845f01515f60405161075793929190611389565b60405180910390a3515f93509150829050610cb2565b604051632bbc239560e11b8152853560048201525f907f00000000000000000000000000000000000000000000000000000000000000006001600160a01b031690635778472a9060240161034060405180830381865afa1580156107d3573d5f5f3e3d5ffd5b505050506040513d601f19601f820116820180604052508101906107f791906118fe565b90505f6040518060800160405280885f0135815260200184606001516001600160401b0316815260200184602001516001600160801b0316815260200184604001516001600160801b031681525090505f60405180606001604052808460a001511515815260200185602001516001600160801b031661087690611aea565b815260200161088c6101008b0160e08c016113ca565b6001600160a01b031681525090505f60405180606001604052808a6020018036038101906108ba9190611791565b8152602080820185905260408051875181840152918701516001600160401b031682820152868101516001600160801b039081166060808501919091528801511660808301529091019060a00160408051601f198184030181529181529152516109279190602001611b04565b60408051601f198184030181529082905260608701516020888101516001600160801b031684529193506001600160401b0316918b35917ffcd08d12d91ceb5bb6b09945d5df91da31280e1afc21692235e4df3d350ea1b4910160405180910390a36040516348c8949160e01b81526001600160a01b037f000000000000000000000000000000000000000000000000000000000000000016906348c89491906109d5908490600401611329565b5f604051808303815f875af1925050508015610a1257506040513d5f823e601f3d908101601f19168201604052610a0f9190810190611b5d565b60015b610bd257610a657f000000000000000000000000000000000000000000000000000000000000000086602001516001600160801b031686606001516001600160a01b03166110569092919063ffffffff16565b60608501516040516395c6017b60e01b81528a3560048201526001600160401b0390911660248201527f00000000000000000000000000000000000000000000000000000000000000006001600160a01b0316906395c6017b906044015f604051808303815f87803b158015610ad9575f5ffd5b505af1158015610aeb573d5f5f3e3d5ffd5b50505050606085015160405163919d8bfd60e01b8152600598507f00000000000000000000000000000000000000000000000000000000000000006001600160a01b03169163919d8bfd91610b47918d35918c90600401611878565b5f604051808303815f87803b158015610b5e575f5ffd5b505af1158015610b70573d5f5f3e3d5ffd5b5050505084606001516001600160401b0316895f01357fdf7df68fddb55e38a4b636bbd972bdf7820a2a1b99e9531fe805a52f90a7e99d5f8a5f604051610bb993929190611389565b60405180910390a3505f9650869450610cb29350505050565b8051602014610bf45760405163c612fa2d60e01b815260040160405180910390fd5b5f81806020019051810190610c09919061170c565b90508560a0015115610c37575f610c2082600f0b90565b90505f81600f0b1315610c31578098505b50610c55565b5f610c428260801d90565b90505f81600f0b1315610c53578098505b505b86606001516001600160401b03168b5f01357fdf7df68fddb55e38a4b636bbd972bdf7820a2a1b99e9531fe805a52f90a7e99d60015f8c604051610c9b93929190611389565b60405180910390a360015f99509950505050505050505b610cbc6001600255565b9193909250565b610ccb610d33565b600180546001600160a01b0383166001600160a01b03199091168117909155610cfb5f546001600160a01b031690565b6001600160a01b03167f38d16b8cac22d99fc7c124b9cd0de2d3fa1faef420bfe791d8c362d765e2270060405160405180910390a350565b5f546001600160a01b031633146102405760405163118cdaa760e01b8152336004820152602401610276565b600180546001600160a01b0319169055610288816110ad565b8015610fb7576001600160a01b038416610df557826001600160a01b03166311da60b4826040518263ffffffff1660e01b815260040160206040518083038185885af1158015610dca573d5f5f3e3d5ffd5b50505050506040513d601f19601f82011682018060405250810190610def919061170c565b50610fb7565b604051632961046560e21b81526001600160a01b03858116600483015284169063a5841194906024015f604051808303815f87803b158015610e35575f5ffd5b505af1158015610e47573d5f5f3e3d5ffd5b50505050306001600160a01b0316826001600160a01b031603610eda5760405163a9059cbb60e01b81526001600160a01b0384811660048301526024820183905285169063a9059cbb906044016020604051808303815f875af1158015610eb0573d5f5f3e3d5ffd5b505050506040513d601f19601f82011682018060405250810190610ed49190611bd1565b50610f54565b6040516323b872dd60e01b81526001600160a01b0383811660048301528481166024830152604482018390528516906323b872dd906064016020604051808303815f875af1158015610f2e573d5f5f3e3d5ffd5b505050506040513d601f19601f82011682018060405250810190610f529190611bd1565b505b826001600160a01b03166311da60b46040518163ffffffff1660e01b81526004016020604051808303815f875af1158015610f91573d5f5f3e3d5ffd5b505050506040513d601f19601f82011682018060405250810190610fb5919061170c565b505b50505050565b8015610fb757604051630b0d9c0960e01b81526001600160a01b038581166004830152838116602483015260448201839052841690630b0d9c09906064015f604051808303815f87803b158015611012575f5ffd5b505af1158015611024573d5f5f3e3d5ffd5b5050505050505050565b600280540361105057604051633ee5aeb560e01b815260040160405180910390fd5b60028055565b604080516001600160a01b038416602482015260448082018490528251808303909101815260649091019091526020810180516001600160e01b031663a9059cbb60e01b1790526110a89084906110fc565b505050565b5f80546001600160a01b038381166001600160a01b0319831681178455604051919092169283917f8be0079c531659141344cd1fd0a4f28419497f9722a3daafe3b4186f6b6457e09190a35050565b5f6111106001600160a01b0384168361115d565b905080515f141580156111345750808060200190518101906111329190611bd1565b155b156110a857604051635274afe760e01b81526001600160a01b0384166004820152602401610276565b606061116a83835f611171565b9392505050565b6060814710156111965760405163cd78605960e01b8152306004820152602401610276565b5f5f856001600160a01b031684866040516111b19190611bec565b5f6040518083038185875af1925050503d805f81146111eb576040519150601f19603f3d011682016040523d82523d5f602084013e6111f0565b606091505b509150915061120086838361120a565b9695505050505050565b60608261121f5761121a82611266565b61116a565b815115801561123657506001600160a01b0384163b155b1561125f57604051639996b31560e01b81526001600160a01b0385166004820152602401610276565b508061116a565b8051156112765780518082602001fd5b604051630a12f52160e11b815260040160405180910390fd5b5f5f602083850312156112a0575f5ffd5b82356001600160401b038111156112b5575f5ffd5b8301601f810185136112c5575f5ffd5b80356001600160401b038111156112da575f5ffd5b8560208284010111156112eb575f5ffd5b6020919091019590945092505050565b5f81518084528060208401602086015e5f602082860101526020601f19601f83011685010191505092915050565b602081525f61116a60208301846112fb565b5f61012082840312801561134d575f5ffd5b509092915050565b634e487b7160e01b5f52602160045260245ffd5b6009811061138557634e487b7160e01b5f52602160045260245ffd5b9052565b83151581526060810161139f6020830185611369565b6001600160801b0383166040830152949350505050565b6001600160a01b0381168114610288575f5ffd5b5f602082840312156113da575f5ffd5b813561116a816113b6565b634e487b7160e01b5f52604160045260245ffd5b604051606081016001600160401b038111828210171561141b5761141b6113e5565b60405290565b60405161034081016001600160401b038111828210171561141b5761141b6113e5565b604051601f8201601f191681016001600160401b038111828210171561146c5761146c6113e5565b604052919050565b62ffffff81168114610288575f5ffd5b5f60a08284031215611494575f5ffd5b60405160a081016001600160401b03811182821017156114b6576114b66113e5565b60405290508082356114c7816113b6565b815260208301356114d7816113b6565b602082015260408301356114ea81611474565b60408201526060830135600281900b8114611503575f5ffd5b60608201526080830135611516816113b6565b6080919091015292915050565b8015158114610288575f5ffd5b5f6001600160401b03821115611548576115486113e5565b50601f01601f191660200190565b5f82601f830112611565575f5ffd5b813561157861157382611530565b611444565b81815284602083860101111561158c575f5ffd5b816020850160208301375f918101602001919091529392505050565b5f602082840312156115b8575f5ffd5b81356001600160401b038111156115cd575f5ffd5b82018084036101208112156115e0575f5ffd5b6115e86113f9565b6115f28684611484565b81526060609f1983011215611605575f5ffd5b61160d6113f9565b915060a083013561161d81611523565b825260c0830135602083015260e0830135611637816113b6565b60408301526020810191909152610100820135906001600160401b0382111561165e575f5ffd5b61166a86838501611556565b604082015295945050505050565b80516001600160a01b03908116835260208083015182169084015260408083015162ffffff169084015260608083015160020b9084015260809182015116910152565b6116c58185611678565b8251151560a0820152602083015160c082015260408301516001600160a01b031660e08201526101206101008201525f6117036101208301846112fb565b95945050505050565b5f6020828403121561171c575f5ffd5b5051919050565b634e487b7160e01b5f52601160045260245ffd5b5f81600f0b6f7fffffffffffffffffffffffffffffff19810361175c5761175c611723565b5f0392915050565b64ffffffffff81168114610288575f5ffd5b5f60208284031215611786575f5ffd5b813561116a81611764565b5f60a082840312156117a1575f5ffd5b61116a8383611484565b5f602082840312156117bb575f5ffd5b813561116a81611474565b80516001600160801b03811681146117dc575f5ffd5b919050565b80516001600160401b03811681146117dc575f5ffd5b5f6080828403128015611808575f5ffd5b50604051608081016001600160401b038111828210171561182b5761182b6113e5565b60405282516009811061183c575f5ffd5b815261184a602084016117c6565b602082015261185b604084016117c6565b604082015261186c606084016117e1565b60608201529392505050565b8381526001600160401b03831660208201526060810161189b6040830184611369565b949350505050565b80516117dc816113b6565b80516117dc81611523565b8051600281106117dc575f5ffd5b80516117dc81611764565b805163ffffffff811681146117dc575f5ffd5b80516117dc81611474565b8051600481106117dc575f5ffd5b5f610340828403128015611910575f5ffd5b50611919611421565b82518152611929602084016118a3565b602082015260408381015190820152611944606084016118a3565b6060820152611955608084016118a3565b608082015261196660a084016118ae565b60a082015261197760c084016117c6565b60c082015261198860e084016117c6565b60e082015261199a61010084016117c6565b6101008201526119ad61012084016117c6565b6101208201526119c061014084016118b9565b6101408201526119d361016084016118c7565b6101608201526119e661018084016118c7565b6101808201526119f96101a084016118d2565b6101a0820152611a0c6101c084016118d2565b6101c0820152611a1f6101e084016117c6565b6101e0820152611a3261020084016117c6565b610200820152611a4561022084016118e5565b610220820152611a5861024084016117c6565b610240820152611a6b61026084016118f0565b610260820152611a7e61028084016117e1565b610280820152611a916102a084016117e1565b6102a0820152611aa46102c084016117e1565b6102c0820152611ab76102e084016117e1565b6102e0820152611aca61030084016118c7565b610300820152611add61032084016118a3565b6103208201529392505050565b5f600160ff1b8201611afe57611afe611723565b505f0390565b60208152611b16602082018351611678565b6020828101518051151560c08401529081015160e08301526040908101516001600160a01b0316610100830152820151610120808301525f9061189b6101408401826112fb565b5f60208284031215611b6d575f5ffd5b81516001600160401b03811115611b82575f5ffd5b8201601f81018413611b92575f5ffd5b8051611ba061157382611530565b818152856020838501011115611bb4575f5ffd5b8160208401602083015e5f91810160200191909152949350505050565b5f60208284031215611be1575f5ffd5b815161116a81611523565b5f82518060208501845e5f92019182525091905056fea164736f6c634300081e000a","linkReferences":{}},"methodIdentifiers":{"acceptOwnership()":"79ba5097","executeNextSlice((bytes32,(address,address,uint24,int24,address),uint24,uint160,uint40))":"dee73244","hook()":"7f5a7c7b","owner()":"8da5cb5b","pendingOwner()":"e30c3978","poolManager()":"dc4c90d3","renounceOwnership()":"715018a6","transferOwnership(address)":"f2fde38b","unlockCallback(bytes)":"91dd7346","vault()":"fbfa77cf"},"id":85}