{"abi":[{"type":"constructor","inputs":[{"name":"poolManager_","type":"address","internalType":"contract IPoolManager"},{"name":"vault_","type":"address","internalType":"contract IOrderBookVault"}],"stateMutability":"nonpayable"},{"type":"function","name":"afterAddLiquidity","inputs":[{"name":"sender","type":"address","internalType":"address"},{"name":"key","type":"tuple","internalType":"struct PoolKey","components":[{"name":"currency0","type":"address","internalType":"Currency"},{"name":"currency1","type":"address","internalType":"Currency"},{"name":"fee","type":"uint24","internalType":"uint24"},{"name":"tickSpacing","type":"int24","internalType":"int24"},{"name":"hooks","type":"address","internalType":"contract IHooks"}]},{"name":"params","type":"tuple","internalType":"struct ModifyLiquidityParams","components":[{"name":"tickLower","type":"int24","internalType":"int24"},{"name":"tickUpper","type":"int24","internalType":"int24"},{"name":"liquidityDelta","type":"int256","internalType":"int256"},{"name":"salt","type":"bytes32","internalType":"bytes32"}]},{"name":"delta0","type":"int256","internalType":"BalanceDelta"},{"name":"delta1","type":"int256","internalType":"BalanceDelta"},{"name":"hookData","type":"bytes","internalType":"bytes"}],"outputs":[{"name":"","type":"bytes4","internalType":"bytes4"},{"name":"","type":"int256","internalType":"BalanceDelta"}],"stateMutability":"nonpayable"},{"type":"function","name":"afterDonate","inputs":[{"name":"sender","type":"address","internalType":"address"},{"name":"key","type":"tuple","internalType":"struct PoolKey","components":[{"name":"currency0","type":"address","internalType":"Currency"},{"name":"currency1","type":"address","internalType":"Currency"},{"name":"fee","type":"uint24","internalType":"uint24"},{"name":"tickSpacing","type":"int24","internalType":"int24"},{"name":"hooks","type":"address","internalType":"contract IHooks"}]},{"name":"amount0","type":"uint256","internalType":"uint256"},{"name":"amount1","type":"uint256","internalType":"uint256"},{"name":"hookData","type":"bytes","internalType":"bytes"}],"outputs":[{"name":"","type":"bytes4","internalType":"bytes4"}],"stateMutability":"nonpayable"},{"type":"function","name":"afterInitialize","inputs":[{"name":"sender","type":"address","internalType":"address"},{"name":"key","type":"tuple","internalType":"struct PoolKey","components":[{"name":"currency0","type":"address","internalType":"Currency"},{"name":"currency1","type":"address","internalType":"Currency"},{"name":"fee","type":"uint24","internalType":"uint24"},{"name":"tickSpacing","type":"int24","internalType":"int24"},{"name":"hooks","type":"address","internalType":"contract IHooks"}]},{"name":"sqrtPriceX96","type":"uint160","internalType":"uint160"},{"name":"tick","type":"int24","internalType":"int24"}],"outputs":[{"name":"","type":"bytes4","internalType":"bytes4"}],"stateMutability":"nonpayable"},{"type":"function","name":"afterRemoveLiquidity","inputs":[{"name":"sender","type":"address","internalType":"address"},{"name":"key","type":"tuple","internalType":"struct PoolKey","components":[{"name":"currency0","type":"address","internalType":"Currency"},{"name":"currency1","type":"address","internalType":"Currency"},{"name":"fee","type":"uint24","internalType":"uint24"},{"name":"tickSpacing","type":"int24","internalType":"int24"},{"name":"hooks","type":"address","internalType":"contract IHooks"}]},{"name":"params","type":"tuple","internalType":"struct ModifyLiquidityParams","components":[{"name":"tickLower","type":"int24","internalType":"int24"},{"name":"tickUpper","type":"int24","internalType":"int24"},{"name":"liquidityDelta","type":"int256","internalType":"int256"},{"name":"salt","type":"bytes32","internalType":"bytes32"}]},{"name":"delta0","type":"int256","internalType":"BalanceDelta"},{"name":"delta1","type":"int256","internalType":"BalanceDelta"},{"name":"hookData","type":"bytes","internalType":"bytes"}],"outputs":[{"name":"","type":"bytes4","internalType":"bytes4"},{"name":"","type":"int256","internalType":"BalanceDelta"}],"stateMutability":"nonpayable"},{"type":"function","name":"afterSwap","inputs":[{"name":"sender","type":"address","internalType":"address"},{"name":"key","type":"tuple","internalType":"struct PoolKey","components":[{"name":"currency0","type":"address","internalType":"Currency"},{"name":"currency1","type":"address","internalType":"Currency"},{"name":"fee","type":"uint24","internalType":"uint24"},{"name":"tickSpacing","type":"int24","internalType":"int24"},{"name":"hooks","type":"address","internalType":"contract IHooks"}]},{"name":"params","type":"tuple","internalType":"struct SwapParams","components":[{"name":"zeroForOne","type":"bool","internalType":"bool"},{"name":"amountSpecified","type":"int256","internalType":"int256"},{"name":"sqrtPriceLimitX96","type":"uint160","internalType":"uint160"}]},{"name":"delta","type":"int256","internalType":"BalanceDelta"},{"name":"hookData","type":"bytes","internalType":"bytes"}],"outputs":[{"name":"","type":"bytes4","internalType":"bytes4"},{"name":"","type":"int128","internalType":"int128"}],"stateMutability":"nonpayable"},{"type":"function","name":"beforeAddLiquidity","inputs":[{"name":"sender","type":"address","internalType":"address"},{"name":"key","type":"tuple","internalType":"struct PoolKey","components":[{"name":"currency0","type":"address","internalType":"Currency"},{"name":"currency1","type":"address","internalType":"Currency"},{"name":"fee","type":"uint24","internalType":"uint24"},{"name":"tickSpacing","type":"int24","internalType":"int24"},{"name":"hooks","type":"address","internalType":"contract IHooks"}]},{"name":"params","type":"tuple","internalType":"struct ModifyLiquidityParams","components":[{"name":"tickLower","type":"int24","internalType":"int24"},{"name":"tickUpper","type":"int24","internalType":"int24"},{"name":"liquidityDelta","type":"int256","internalType":"int256"},{"name":"salt","type":"bytes32","internalType":"bytes32"}]},{"name":"hookData","type":"bytes","internalType":"bytes"}],"outputs":[{"name":"","type":"bytes4","internalType":"bytes4"}],"stateMutability":"nonpayable"},{"type":"function","name":"beforeDonate","inputs":[{"name":"sender","type":"address","internalType":"address"},{"name":"key","type":"tuple","internalType":"struct PoolKey","components":[{"name":"currency0","type":"address","internalType":"Currency"},{"name":"currency1","type":"address","internalType":"Currency"},{"name":"fee","type":"uint24","internalType":"uint24"},{"name":"tickSpacing","type":"int24","internalType":"int24"},{"name":"hooks","type":"address","internalType":"contract IHooks"}]},{"name":"amount0","type":"uint256","internalType":"uint256"},{"name":"amount1","type":"uint256","internalType":"uint256"},{"name":"hookData","type":"bytes","internalType":"bytes"}],"outputs":[{"name":"","type":"bytes4","internalType":"bytes4"}],"stateMutability":"nonpayable"},{"type":"function","name":"beforeInitialize","inputs":[{"name":"sender","type":"address","internalType":"address"},{"name":"key","type":"tuple","internalType":"struct PoolKey","components":[{"name":"currency0","type":"address","internalType":"Currency"},{"name":"currency1","type":"address","internalType":"Currency"},{"name":"fee","type":"uint24","internalType":"uint24"},{"name":"tickSpacing","type":"int24","internalType":"int24"},{"name":"hooks","type":"address","internalType":"contract IHooks"}]},{"name":"sqrtPriceX96","type":"uint160","internalType":"uint160"}],"outputs":[{"name":"","type":"bytes4","internalType":"bytes4"}],"stateMutability":"nonpayable"},{"type":"function","name":"beforeRemoveLiquidity","inputs":[{"name":"sender","type":"address","internalType":"address"},{"name":"key","type":"tuple","internalType":"struct PoolKey","components":[{"name":"currency0","type":"address","internalType":"Currency"},{"name":"currency1","type":"address","internalType":"Currency"},{"name":"fee","type":"uint24","internalType":"uint24"},{"name":"tickSpacing","type":"int24","internalType":"int24"},{"name":"hooks","type":"address","internalType":"contract IHooks"}]},{"name":"params","type":"tuple","internalType":"struct ModifyLiquidityParams","components":[{"name":"tickLower","type":"int24","internalType":"int24"},{"name":"tickUpper","type":"int24","internalType":"int24"},{"name":"liquidityDelta","type":"int256","internalType":"int256"},{"name":"salt","type":"bytes32","internalType":"bytes32"}]},{"name":"hookData","type":"bytes","internalType":"bytes"}],"outputs":[{"name":"","type":"bytes4","internalType":"bytes4"}],"stateMutability":"nonpayable"},{"type":"function","name":"beforeSwap","inputs":[{"name":"sender","type":"address","internalType":"address"},{"name":"key","type":"tuple","internalType":"struct PoolKey","components":[{"name":"currency0","type":"address","internalType":"Currency"},{"name":"currency1","type":"address","internalType":"Currency"},{"name":"fee","type":"uint24","internalType":"uint24"},{"name":"tickSpacing","type":"int24","internalType":"int24"},{"name":"hooks","type":"address","internalType":"contract IHooks"}]},{"name":"params","type":"tuple","internalType":"struct SwapParams","components":[{"name":"zeroForOne","type":"bool","internalType":"bool"},{"name":"amountSpecified","type":"int256","internalType":"int256"},{"name":"sqrtPriceLimitX96","type":"uint160","internalType":"uint160"}]},{"name":"hookData","type":"bytes","internalType":"bytes"}],"outputs":[{"name":"","type":"bytes4","internalType":"bytes4"},{"name":"","type":"int256","internalType":"BeforeSwapDelta"},{"name":"","type":"uint24","internalType":"uint24"}],"stateMutability":"nonpayable"},{"type":"function","name":"getHookPermissions","inputs":[],"outputs":[{"name":"permissions","type":"tuple","internalType":"struct Hooks.Permissions","components":[{"name":"beforeInitialize","type":"bool","internalType":"bool"},{"name":"afterInitialize","type":"bool","internalType":"bool"},{"name":"beforeAddLiquidity","type":"bool","internalType":"bool"},{"name":"afterAddLiquidity","type":"bool","internalType":"bool"},{"name":"beforeRemoveLiquidity","type":"bool","internalType":"bool"},{"name":"afterRemoveLiquidity","type":"bool","internalType":"bool"},{"name":"beforeSwap","type":"bool","internalType":"bool"},{"name":"afterSwap","type":"bool","internalType":"bool"},{"name":"beforeDonate","type":"bool","internalType":"bool"},{"name":"afterDonate","type":"bool","internalType":"bool"},{"name":"beforeSwapReturnDelta","type":"bool","internalType":"bool"},{"name":"afterSwapReturnDelta","type":"bool","internalType":"bool"},{"name":"afterAddLiquidityReturnDelta","type":"bool","internalType":"bool"},{"name":"afterRemoveLiquidityReturnDelta","type":"bool","internalType":"bool"}]}],"stateMutability":"pure"},{"type":"function","name":"notifyOrderCancelled","inputs":[{"name":"orderId","type":"bytes32","internalType":"bytes32"},{"name":"owner","type":"address","internalType":"address"}],"outputs":[],"stateMutability":"nonpayable"},{"type":"function","name":"notifyOrderCompleted","inputs":[{"name":"orderId","type":"bytes32","internalType":"bytes32"},{"name":"totalIn","type":"uint128","internalType":"uint128"},{"name":"totalOut","type":"uint128","internalType":"uint128"},{"name":"avgPriceX96","type":"uint160","internalType":"uint160"}],"outputs":[],"stateMutability":"nonpayable"},{"type":"function","name":"notifyOrderCreated","inputs":[{"name":"orderId","type":"bytes32","internalType":"bytes32"},{"name":"owner","type":"address","internalType":"address"},{"name":"poolId","type":"bytes32","internalType":"bytes32"},{"name":"mode","type":"uint8","internalType":"enum ExecutionMode"}],"outputs":[],"stateMutability":"nonpayable"},{"type":"function","name":"poolManager","inputs":[],"outputs":[{"name":"","type":"address","internalType":"contract IPoolManager"}],"stateMutability":"view"},{"type":"function","name":"reportSliceBlocked","inputs":[{"name":"orderId","type":"bytes32","internalType":"bytes32"},{"name":"sliceIndex","type":"uint64","internalType":"uint64"},{"name":"reasonCode","type":"uint8","internalType":"enum ReasonCode"}],"outputs":[],"stateMutability":"nonpayable"},{"type":"function","name":"vault","inputs":[],"outputs":[{"name":"","type":"address","internalType":"contract IOrderBookVault"}],"stateMutability":"view"},{"type":"event","name":"OrderCancelled","inputs":[{"name":"orderId","type":"bytes32","indexed":true,"internalType":"bytes32"},{"name":"owner","type":"address","indexed":true,"internalType":"address"}],"anonymous":false},{"type":"event","name":"OrderCompleted","inputs":[{"name":"orderId","type":"bytes32","indexed":true,"internalType":"bytes32"},{"name":"totalIn","type":"uint128","indexed":false,"internalType":"uint128"},{"name":"totalOut","type":"uint128","indexed":false,"internalType":"uint128"},{"name":"avgPriceX96","type":"uint160","indexed":false,"internalType":"uint160"}],"anonymous":false},{"type":"event","name":"OrderCreated","inputs":[{"name":"orderId","type":"bytes32","indexed":true,"internalType":"bytes32"},{"name":"owner","type":"address","indexed":true,"internalType":"address"},{"name":"poolId","type":"bytes32","indexed":true,"internalType":"bytes32"},{"name":"mode","type":"uint8","indexed":false,"internalType":"enum ExecutionMode"}],"anonymous":false},{"type":"event","name":"SliceBlocked","inputs":[{"name":"orderId","type":"bytes32","indexed":true,"internalType":"bytes32"},{"name":"sliceIndex","type":"uint64","indexed":false,"internalType":"uint64"},{"name":"reasonCode","type":"uint8","indexed":false,"internalType":"enum ReasonCode"}],"anonymous":false},{"type":"event","name":"SliceExecuted","inputs":[{"name":"orderId","type":"bytes32","indexed":true,"internalType":"bytes32"},{"name":"sliceIndex","type":"uint64","indexed":false,"internalType":"uint64"},{"name":"amountIn","type":"uint128","indexed":false,"internalType":"uint128"},{"name":"amountOut","type":"uint128","indexed":false,"internalType":"uint128"},{"name":"blockNumber","type":"uint256","indexed":false,"internalType":"uint256"}],"anonymous":false},{"type":"error","name":"HookNotImplemented","inputs":[]},{"type":"error","name":"InvalidPool","inputs":[]},{"type":"error","name":"LargeCapExecutionHook__InvalidHookData","inputs":[]},{"type":"error","name":"LargeCapExecutionHook__InvalidReporter","inputs":[]},{"type":"error","name":"LargeCapExecutionHook__NotVault","inputs":[]},{"type":"error","name":"LargeCapExecutionHook__SliceBlocked","inputs":[{"name":"reasonCode","type":"uint8","internalType":"enum ReasonCode"}]},{"type":"error","name":"NotPoolManager","inputs":[]},{"type":"error","name":"NotSelf","inputs":[]}],"bytecode":{"object":"0x60c060405234801561000f575f5ffd5b5060405161191638038061191683398101604081905261002e916102c4565b6001600160a01b0382166080528161004530610058565b506001600160a01b031660a052506102fc565b61014881610143604080516101c0810182525f80825260208201819052918101829052606081018290526080810182905260a0810182905260c0810182905260e08101829052610100810182905261012081018290526101408101829052610160810182905261018081018290526101a081019190915250604080516101c0810182525f80825260208201819052918101829052606081018290526080810182905260a08101829052600160c0820181905260e0820152610100810182905261012081018290526101408101829052610160810182905261018081018290526101a081019190915290565b61014b565b50565b805115156120008316151514158061016f5750602081015115156110008316151514155b806101865750604081015115156108008316151514155b8061019d5750606081015115156104008316151514155b806101b45750608081015115156102008316151514155b806101cb575060a081015115156101008316151514155b806101e1575060c0810151151560808316151514155b806101f7575060e0810151151560408316151514155b8061020e5750610100810151151560208316151514155b806102255750610120810151151560108316151514155b8061023c5750610140810151151560088316151514155b806102535750610160810151151560048316151514155b8061026a5750610180810151151560028316151514155b8061028157506101a0810151151560018316151514155b1561029757610297630732d7b560e51b8361029b565b5050565b815f526001600160a01b03811660045260245ffd5b6001600160a01b0381168114610148575f5ffd5b5f5f604083850312156102d5575f5ffd5b82516102e0816102b0565b60208401519092506102f1816102b0565b809150509250929050565b60805160a0516115906103865f395f818161038e015281816103ce015281816104c101528181610676015281816106a1015281816108c60152818161098c01528181610a980152610c5201525f818161033c0152818161046101528181610546015281816105af015281816106180152818161079e01528181610805015261086801526115905ff3fe608060405234801561000f575f5ffd5b5060043610610106575f3560e01c80639f063efc1161009e578063dc4c90d31161006e578063dc4c90d314610337578063dc98354e14610376578063e1b4af6914610230578063fbfa77cf14610389578063fd41df8c146103b0575f5ffd5b80639f063efc146101a1578063b47b2fb1146101fa578063b6a8b0fa14610230578063c4e833ce14610243575f5ffd5b8063575e24b4116100d9578063575e24b4146101635780636c2bbe7e146101a15780636fe7e6eb146101d4578063919d8bfd146101e7575f5ffd5b80631e540e311461010a57806321d0ee701461011f578063259982e51461011f578063349ffb4a14610150575b5f5ffd5b61011d610118366004610db8565b6103c3565b005b61013261012d366004610e6c565b610455565b6040516001600160e01b031990911681526020015b60405180910390f35b61011d61015e366004610ee2565b6104b6565b610176610171366004610f20565b610538565b604080516001600160e01b03199094168452602084019290925262ffffff1690820152606001610147565b6101b46101af366004610f79565b6105a2565b604080516001600160e01b03199093168352602083019190915201610147565b6101326101e2366004611019565b61060c565b61011d6101f5366004611092565b61066b565b61020d6102083660046110cf565b610791565b604080516001600160e01b03199093168352600f9190910b602083015201610147565b61013261023e36600461114f565b6107f9565b61032a604080516101c0810182525f80825260208201819052918101829052606081018290526080810182905260a0810182905260c0810182905260e08101829052610100810182905261012081018290526101408101829052610160810182905261018081018290526101a081019190915250604080516101c0810182525f80825260208201819052918101829052606081018290526080810182905260a08101829052600160c0820181905260e0820152610100810182905261012081018290526101408101829052610160810182905261018081018290526101a081019190915290565b60405161014791906111a8565b61035e7f000000000000000000000000000000000000000000000000000000000000000081565b6040516001600160a01b039091168152602001610147565b6101326103843660046112c9565b61085c565b61035e7f000000000000000000000000000000000000000000000000000000000000000081565b61011d6103be36600461131b565b6108bb565b336001600160a01b037f0000000000000000000000000000000000000000000000000000000000000000161461040c576040516309cde81f60e41b815260040160405180910390fd5b81836001600160a01b0316857f81bed46f3394c5b72a6081e944d2f16fd3d5d9ae08034008ce1fe8929114111c846040516104479190611370565b60405180910390a450505050565b5f336001600160a01b037f0000000000000000000000000000000000000000000000000000000000000000161461049f5760405163570c108560e11b815260040160405180910390fd5b6104ac868686868661095f565b9695505050505050565b336001600160a01b037f000000000000000000000000000000000000000000000000000000000000000016146104ff576040516309cde81f60e41b815260040160405180910390fd5b6040516001600160a01b0382169083907fa6eb7cdc219e1518ced964e9a34e61d68a94e4f1569db3e84256ba981ba52753905f90a35050565b5f8080336001600160a01b037f000000000000000000000000000000000000000000000000000000000000000016146105845760405163570c108560e11b815260040160405180910390fd5b6105918888888888610979565b925092509250955095509592505050565b5f80336001600160a01b037f000000000000000000000000000000000000000000000000000000000000000016146105ed5760405163570c108560e11b815260040160405180910390fd5b6105fc89898989898989610b8b565b9150915097509795505050505050565b5f336001600160a01b037f000000000000000000000000000000000000000000000000000000000000000016146106565760405163570c108560e11b815260040160405180910390fd5b6106628585858561095f565b95945050505050565b336001600160a01b037f0000000000000000000000000000000000000000000000000000000000000000161480159061073557507f00000000000000000000000000000000000000000000000000000000000000006001600160a01b031663c34c08e56040518163ffffffff1660e01b8152600401602060405180830381865afa1580156106fb573d5f5f3e3d5ffd5b505050506040513d601f19601f8201168201806040525081019061071f919061138a565b6001600160a01b0316336001600160a01b031614155b15610752576040516258e31360e51b815260040160405180910390fd5b827f82efaee5b14d8017020d8b71e6fc399e18b833bca549be299b7db2752d4df93583836040516107849291906113b9565b60405180910390a2505050565b5f80336001600160a01b037f000000000000000000000000000000000000000000000000000000000000000016146107dc5760405163570c108560e11b815260040160405180910390fd5b6107ea888888888888610ba6565b91509150965096945050505050565b5f336001600160a01b037f000000000000000000000000000000000000000000000000000000000000000016146108435760405163570c108560e11b815260040160405180910390fd5b61085187878787878761095f565b979650505050505050565b5f336001600160a01b037f000000000000000000000000000000000000000000000000000000000000000016146108a65760405163570c108560e11b815260040160405180910390fd5b6108b184848461095f565b90505b9392505050565b336001600160a01b037f00000000000000000000000000000000000000000000000000000000000000001614610904576040516309cde81f60e41b815260040160405180910390fd5b604080516001600160801b038581168252841660208201526001600160a01b03831681830152905185917fb95b19f9722751d4ef43eb4a64ebbd3f20dec392726d883093fa0d3cd1fe4d43919081900360600190a250505050565b5f604051630a85dc2960e01b815260040160405180910390fd5b5f5f5f5f6109878686610d51565b90505f7f00000000000000000000000000000000000000000000000000000000000000006001600160a01b0316632e01e932835f0151846020015185604001516109e28e8036038101906109db91906113d6565b60a0902090565b6109ef60208f018f61148b565b6040516001600160e01b031960e088901b16815260048101959095526001600160401b0390931660248501526001600160801b03909116604484015260648301521515608482015260a401602060405180830381865afa158015610a55573d5f5f3e3d5ffd5b505050506040513d601f19601f82011682018060405250810190610a7991906114a6565b90505f816008811115610a8e57610a8e61135c565b148015610b2c57507f00000000000000000000000000000000000000000000000000000000000000006001600160a01b031663c34c08e56040518163ffffffff1660e01b8152600401602060405180830381865afa158015610af2573d5f5f3e3d5ffd5b505050506040513d601f19601f82011682018060405250810190610b16919061138a565b6001600160a01b03168a6001600160a01b031614155b15610b35575060075b5f816008811115610b4857610b4861135c565b14610b715780604051630573e84f60e21b8152600401610b6891906114c1565b60405180910390fd5b506315d7892d60e21b995f99508998509650505050505050565b5f5f604051630a85dc2960e01b815260040160405180910390fd5b5f5f5f610bb38585610d51565b90505f610bc3602089018961148b565b15610bea575f610bd388600f0b90565b90505f81600f0b1315610be4578091505b50610c08565b5f610bf58860801d90565b90505f81600f0b1315610c06578091505b505b81516020830151604080850151905163affb63bf60e01b815260048101939093526001600160401b0390911660248301526001600160801b039081166044830152821660648201527f00000000000000000000000000000000000000000000000000000000000000006001600160a01b03169063affb63bf9060840160408051808303815f875af1158015610c9f573d5f5f3e3d5ffd5b505050506040513d601f19601f82011682018060405250810190610cc391906114d5565b5050815f01517fdc9ae19539af70419eb3901d67566a3324d783eeeb4423ce03cfe0fca1e59871836020015184604001518443604051610d3194939291906001600160401b039490941684526001600160801b03928316602085015291166040830152606082015260800190565b60405180910390a25063b47b2fb160e01b995f9950975050505050505050565b604080516080810182525f80825260208201819052918101829052606081019190915260808214610d9557604051637587168b60e01b815260040160405180910390fd5b6108b482840184611502565b6001600160a01b0381168114610db5575f5ffd5b50565b5f5f5f5f60808587031215610dcb575f5ffd5b843593506020850135610ddd81610da1565b925060408501359150606085013560028110610df7575f5ffd5b939692955090935050565b5f60a08284031215610e12575f5ffd5b50919050565b5f60808284031215610e12575f5ffd5b5f5f83601f840112610e38575f5ffd5b5081356001600160401b03811115610e4e575f5ffd5b602083019150836020828501011115610e65575f5ffd5b9250929050565b5f5f5f5f5f6101608688031215610e81575f5ffd5b8535610e8c81610da1565b9450610e9b8760208801610e02565b9350610eaa8760c08801610e18565b92506101408601356001600160401b03811115610ec5575f5ffd5b610ed188828901610e28565b969995985093965092949392505050565b5f5f60408385031215610ef3575f5ffd5b823591506020830135610f0581610da1565b809150509250929050565b5f60608284031215610e12575f5ffd5b5f5f5f5f5f6101408688031215610f35575f5ffd5b8535610f4081610da1565b9450610f4f8760208801610e02565b9350610f5e8760c08801610f10565b92506101208601356001600160401b03811115610ec5575f5ffd5b5f5f5f5f5f5f5f6101a0888a031215610f90575f5ffd5b8735610f9b81610da1565b9650610faa8960208a01610e02565b9550610fb98960c08a01610e18565b9450610140880135935061016088013592506101808801356001600160401b03811115610fe4575f5ffd5b610ff08a828b01610e28565b989b979a50959850939692959293505050565b8035600281900b8114611014575f5ffd5b919050565b5f5f5f5f610100858703121561102d575f5ffd5b843561103881610da1565b93506110478660208701610e02565b925060c085013561105781610da1565b915061106560e08601611003565b905092959194509250565b80356001600160401b0381168114611014575f5ffd5b60098110610db5575f5ffd5b5f5f5f606084860312156110a4575f5ffd5b833592506110b460208501611070565b915060408401356110c481611086565b809150509250925092565b5f5f5f5f5f5f61016087890312156110e5575f5ffd5b86356110f081610da1565b95506110ff8860208901610e02565b945061110e8860c08901610f10565b935061012087013592506101408701356001600160401b03811115611131575f5ffd5b61113d89828a01610e28565b979a9699509497509295939492505050565b5f5f5f5f5f5f6101208789031215611165575f5ffd5b863561117081610da1565b955061117f8860208901610e02565b945060c0870135935060e087013592506101008701356001600160401b03811115611131575f5ffd5b8151151581526101c0810160208301516111c6602084018215159052565b5060408301516111da604084018215159052565b5060608301516111ee606084018215159052565b506080830151611202608084018215159052565b5060a083015161121660a084018215159052565b5060c083015161122a60c084018215159052565b5060e083015161123e60e084018215159052565b5061010083015161125461010084018215159052565b5061012083015161126a61012084018215159052565b5061014083015161128061014084018215159052565b5061016083015161129661016084018215159052565b506101808301516112ac61018084018215159052565b506101a08301516112c26101a084018215159052565b5092915050565b5f5f5f60e084860312156112db575f5ffd5b83356112e681610da1565b92506112f58560208601610e02565b915060c08401356110c481610da1565b80356001600160801b0381168114611014575f5ffd5b5f5f5f5f6080858703121561132e575f5ffd5b8435935061133e60208601611305565b925061134c60408601611305565b91506060850135610df781610da1565b634e487b7160e01b5f52602160045260245ffd5b60208101600283106113845761138461135c565b91905290565b5f6020828403121561139a575f5ffd5b81516108b481610da1565b600981106113b5576113b561135c565b9052565b6001600160401b0383168152604081016108b460208301846113a5565b5f60a08284031280156113e7575f5ffd5b5060405160a081016001600160401b038111828210171561141657634e487b7160e01b5f52604160045260245ffd5b604052823561142481610da1565b8152602083013561143481610da1565b6020820152604083013562ffffff8116811461144e575f5ffd5b604082015261145f60608401611003565b6060820152608083013561147281610da1565b60808201529392505050565b8015158114610db5575f5ffd5b5f6020828403121561149b575f5ffd5b81356108b48161147e565b5f602082840312156114b6575f5ffd5b81516108b481611086565b602081016114cf82846113a5565b92915050565b5f5f604083850312156114e6575f5ffd5b82516114f18161147e565b6020840151909250610f0581610da1565b5f6080828403128015611513575f5ffd5b50604051608081016001600160401b038111828210171561154257634e487b7160e01b5f52604160045260245ffd5b6040528235815261155560208401611070565b602082015261156660408401611305565b604082015261157760608401611305565b6060820152939250505056fea164736f6c634300081e000a","linkReferences":{}},"methodIdentifiers":{"afterAddLiquidity(address,(address,address,uint24,int24,address),(int24,int24,int256,bytes32),int256,int256,bytes)":"9f063efc","afterDonate(address,(address,address,uint24,int24,address),uint256,uint256,bytes)":"e1b4af69","afterInitialize(address,(address,address,uint24,int24,address),uint160,int24)":"6fe7e6eb","afterRemoveLiquidity(address,(address,address,uint24,int24,address),(int24,int24,int256,bytes32),int256,int256,bytes)":"6c2bbe7e","afterSwap(address,(address,address,uint24,int24,address),(bool,int256,uint160),int256,bytes)":"b47b2fb1","beforeAddLiquidity(address,(address,address,uint24,int24,address),(int24,int24,int256,bytes32),bytes)":"259982e5","beforeDonate(address,(address,address,uint24,int24,address),uint256,uint256,bytes)":"b6a8b0fa","beforeInitialize(address,(address,address,uint24,int24,address),uint160)":"dc98354e","beforeRemoveLiquidity(address,(address,address,uint24,int24,address),(int24,int24,int256,bytes32),bytes)":"21d0ee70","beforeSwap(address,(address,address,uint24,int24,address),(bool,int256,uint160),bytes)":"575e24b4","getHookPermissions()":"c4e833ce","notifyOrderCancelled(bytes32,address)":"349ffb4a","notifyOrderCompleted(bytes32,uint128,uint128,uint160)":"fd41df8c","notifyOrderCreated(bytes32,address,bytes32,uint8)":"1e540e31","poolManager()":"dc4c90d3","reportSliceBlocked(bytes32,uint64,uint8)":"919d8bfd","vault()":"fbfa77cf"},"id":86}