{"abi":[{"type":"constructor","inputs":[{"name":"initialOwner","type":"address","internalType":"address"}],"stateMutability":"nonpayable"},{"type":"function","name":"acceptOwnership","inputs":[],"outputs":[],"stateMutability":"nonpayable"},{"type":"function","name":"cancelOrder","inputs":[{"name":"orderId","type":"bytes32","internalType":"bytes32"}],"outputs":[],"stateMutability":"nonpayable"},{"type":"function","name":"claimOutput","inputs":[{"name":"orderId","type":"bytes32","internalType":"bytes32"},{"name":"amount","type":"uint128","internalType":"uint128"},{"name":"recipient","type":"address","internalType":"address"}],"outputs":[{"name":"claimed","type":"uint128","internalType":"uint128"}],"stateMutability":"nonpayable"},{"type":"function","name":"clearPendingSlice","inputs":[{"name":"orderId","type":"bytes32","internalType":"bytes32"},{"name":"sliceIndex","type":"uint64","internalType":"uint64"}],"outputs":[],"stateMutability":"nonpayable"},{"type":"function","name":"createOrder","inputs":[{"name":"params","type":"tuple","internalType":"struct CreateOrderParams","components":[{"name":"poolId","type":"bytes32","internalType":"bytes32"},{"name":"tokenIn","type":"address","internalType":"address"},{"name":"tokenOut","type":"address","internalType":"address"},{"name":"zeroForOne","type":"bool","internalType":"bool"},{"name":"amountInTotal","type":"uint128","internalType":"uint128"},{"name":"mode","type":"uint8","internalType":"enum ExecutionMode"},{"name":"startTime","type":"uint40","internalType":"uint40"},{"name":"endTime","type":"uint40","internalType":"uint40"},{"name":"minIntervalSeconds","type":"uint32","internalType":"uint32"},{"name":"blocksPerSlice","type":"uint32","internalType":"uint32"},{"name":"maxSliceAmount","type":"uint128","internalType":"uint128"},{"name":"minSliceAmount","type":"uint128","internalType":"uint128"},{"name":"maxImpactBps","type":"uint24","internalType":"uint24"},{"name":"minAmountOutPerSlice","type":"uint128","internalType":"uint128"},{"name":"allowedExecutor","type":"address","internalType":"address"}]}],"outputs":[{"name":"orderId","type":"bytes32","internalType":"bytes32"}],"stateMutability":"nonpayable"},{"type":"function","name":"currentNonce","inputs":[{"name":"ownerAddress","type":"address","internalType":"address"}],"outputs":[{"name":"nonce","type":"uint64","internalType":"uint64"}],"stateMutability":"view"},{"type":"function","name":"executor","inputs":[],"outputs":[{"name":"","type":"address","internalType":"address"}],"stateMutability":"view"},{"type":"function","name":"getOrder","inputs":[{"name":"orderId","type":"bytes32","internalType":"bytes32"}],"outputs":[{"name":"order","type":"tuple","internalType":"struct OrderState","components":[{"name":"orderId","type":"bytes32","internalType":"bytes32"},{"name":"owner","type":"address","internalType":"address"},{"name":"poolId","type":"bytes32","internalType":"bytes32"},{"name":"tokenIn","type":"address","internalType":"address"},{"name":"tokenOut","type":"address","internalType":"address"},{"name":"zeroForOne","type":"bool","internalType":"bool"},{"name":"amountInTotal","type":"uint128","internalType":"uint128"},{"name":"amountInRemaining","type":"uint128","internalType":"uint128"},{"name":"amountOutTotal","type":"uint128","internalType":"uint128"},{"name":"amountOutClaimed","type":"uint128","internalType":"uint128"},{"name":"mode","type":"uint8","internalType":"enum ExecutionMode"},{"name":"startTime","type":"uint40","internalType":"uint40"},{"name":"endTime","type":"uint40","internalType":"uint40"},{"name":"minIntervalSeconds","type":"uint32","internalType":"uint32"},{"name":"blocksPerSlice","type":"uint32","internalType":"uint32"},{"name":"maxSliceAmount","type":"uint128","internalType":"uint128"},{"name":"minSliceAmount","type":"uint128","internalType":"uint128"},{"name":"maxImpactBps","type":"uint24","internalType":"uint24"},{"name":"minAmountOutPerSlice","type":"uint128","internalType":"uint128"},{"name":"status","type":"uint8","internalType":"enum OrderStatus"},{"name":"nonce","type":"uint64","internalType":"uint64"},{"name":"epoch","type":"uint64","internalType":"uint64"},{"name":"nextSliceIndex","type":"uint64","internalType":"uint64"},{"name":"lastExecutionBlock","type":"uint64","internalType":"uint64"},{"name":"lastExecutionTime","type":"uint40","internalType":"uint40"},{"name":"allowedExecutor","type":"address","internalType":"address"}]}],"stateMutability":"view"},{"type":"function","name":"getPendingSlice","inputs":[{"name":"orderId","type":"bytes32","internalType":"bytes32"}],"outputs":[{"name":"pending","type":"tuple","internalType":"struct PendingSlice","components":[{"name":"amountIn","type":"uint128","internalType":"uint128"},{"name":"minAmountOut","type":"uint128","internalType":"uint128"},{"name":"sliceIndex","type":"uint64","internalType":"uint64"},{"name":"observedImpactBps","type":"uint24","internalType":"uint24"},{"name":"exists","type":"bool","internalType":"bool"}]}],"stateMutability":"view"},{"type":"function","name":"hook","inputs":[],"outputs":[{"name":"","type":"address","internalType":"address"}],"stateMutability":"view"},{"type":"function","name":"owner","inputs":[],"outputs":[{"name":"","type":"address","internalType":"address"}],"stateMutability":"view"},{"type":"function","name":"pendingOwner","inputs":[],"outputs":[{"name":"","type":"address","internalType":"address"}],"stateMutability":"view"},{"type":"function","name":"previewNextSlice","inputs":[{"name":"orderId","type":"bytes32","internalType":"bytes32"},{"name":"poolId","type":"bytes32","internalType":"bytes32"},{"name":"observedImpactBps","type":"uint24","internalType":"uint24"},{"name":"keeper","type":"address","internalType":"address"}],"outputs":[{"name":"preview","type":"tuple","internalType":"struct SlicePreview","components":[{"name":"reasonCode","type":"uint8","internalType":"enum ReasonCode"},{"name":"amountIn","type":"uint128","internalType":"uint128"},{"name":"minAmountOut","type":"uint128","internalType":"uint128"},{"name":"sliceIndex","type":"uint64","internalType":"uint64"}]}],"stateMutability":"view"},{"type":"function","name":"recordAfterSwap","inputs":[{"name":"orderId","type":"bytes32","internalType":"bytes32"},{"name":"sliceIndex","type":"uint64","internalType":"uint64"},{"name":"amountIn","type":"uint128","internalType":"uint128"},{"name":"amountOut","type":"uint128","internalType":"uint128"}],"outputs":[{"name":"completed","type":"bool","internalType":"bool"},{"name":"avgPriceX96","type":"uint160","internalType":"uint160"}],"stateMutability":"nonpayable"},{"type":"function","name":"renounceOwnership","inputs":[],"outputs":[],"stateMutability":"nonpayable"},{"type":"function","name":"reserveNextSlice","inputs":[{"name":"orderId","type":"bytes32","internalType":"bytes32"},{"name":"poolId","type":"bytes32","internalType":"bytes32"},{"name":"observedImpactBps","type":"uint24","internalType":"uint24"},{"name":"keeper","type":"address","internalType":"address"}],"outputs":[{"name":"preview","type":"tuple","internalType":"struct SlicePreview","components":[{"name":"reasonCode","type":"uint8","internalType":"enum ReasonCode"},{"name":"amountIn","type":"uint128","internalType":"uint128"},{"name":"minAmountOut","type":"uint128","internalType":"uint128"},{"name":"sliceIndex","type":"uint64","internalType":"uint64"}]}],"stateMutability":"nonpayable"},{"type":"function","name":"setExecutor","inputs":[{"name":"newExecutor","type":"address","internalType":"address"}],"outputs":[],"stateMutability":"nonpayable"},{"type":"function","name":"setHook","inputs":[{"name":"newHook","type":"address","internalType":"address"}],"outputs":[],"stateMutability":"nonpayable"},{"type":"function","name":"transferOwnership","inputs":[{"name":"newOwner","type":"address","internalType":"address"}],"outputs":[],"stateMutability":"nonpayable"},{"type":"function","name":"validateHookExecution","inputs":[{"name":"orderId","type":"bytes32","internalType":"bytes32"},{"name":"sliceIndex","type":"uint64","internalType":"uint64"},{"name":"amountIn","type":"uint128","internalType":"uint128"},{"name":"poolId","type":"bytes32","internalType":"bytes32"},{"name":"zeroForOne","type":"bool","internalType":"bool"}],"outputs":[{"name":"reasonCode","type":"uint8","internalType":"enum ReasonCode"}],"stateMutability":"view"},{"type":"function","name":"withdrawRemainingInput","inputs":[{"name":"orderId","type":"bytes32","internalType":"bytes32"},{"name":"recipient","type":"address","internalType":"address"}],"outputs":[{"name":"amount","type":"uint128","internalType":"uint128"}],"stateMutability":"nonpayable"},{"type":"event","name":"ExecutorUpdated","inputs":[{"name":"oldExecutor","type":"address","indexed":true,"internalType":"address"},{"name":"newExecutor","type":"address","indexed":true,"internalType":"address"}],"anonymous":false},{"type":"event","name":"HookUpdated","inputs":[{"name":"oldHook","type":"address","indexed":true,"internalType":"address"},{"name":"newHook","type":"address","indexed":true,"internalType":"address"}],"anonymous":false},{"type":"event","name":"OrderCancelled","inputs":[{"name":"orderId","type":"bytes32","indexed":true,"internalType":"bytes32"},{"name":"owner","type":"address","indexed":true,"internalType":"address"}],"anonymous":false},{"type":"event","name":"OrderCompleted","inputs":[{"name":"orderId","type":"bytes32","indexed":true,"internalType":"bytes32"},{"name":"totalIn","type":"uint128","indexed":false,"internalType":"uint128"},{"name":"totalOut","type":"uint128","indexed":false,"internalType":"uint128"},{"name":"avgPriceX96","type":"uint160","indexed":false,"internalType":"uint160"}],"anonymous":false},{"type":"event","name":"OrderCreated","inputs":[{"name":"orderId","type":"bytes32","indexed":true,"internalType":"bytes32"},{"name":"owner","type":"address","indexed":true,"internalType":"address"},{"name":"poolId","type":"bytes32","indexed":true,"internalType":"bytes32"},{"name":"mode","type":"uint8","indexed":false,"internalType":"enum ExecutionMode"}],"anonymous":false},{"type":"event","name":"OwnershipTransferStarted","inputs":[{"name":"previousOwner","type":"address","indexed":true,"internalType":"address"},{"name":"newOwner","type":"address","indexed":true,"internalType":"address"}],"anonymous":false},{"type":"event","name":"OwnershipTransferred","inputs":[{"name":"previousOwner","type":"address","indexed":true,"internalType":"address"},{"name":"newOwner","type":"address","indexed":true,"internalType":"address"}],"anonymous":false},{"type":"event","name":"SliceSkipped","inputs":[{"name":"orderId","type":"bytes32","indexed":true,"internalType":"bytes32"},{"name":"sliceIndex","type":"uint64","indexed":false,"internalType":"uint64"},{"name":"reasonCode","type":"uint8","indexed":false,"internalType":"enum ReasonCode"}],"anonymous":false},{"type":"error","name":"AddressEmptyCode","inputs":[{"name":"target","type":"address","internalType":"address"}]},{"type":"error","name":"AddressInsufficientBalance","inputs":[{"name":"account","type":"address","internalType":"address"}]},{"type":"error","name":"FailedInnerCall","inputs":[]},{"type":"error","name":"OrderBookVault__InsufficientClaimableOutput","inputs":[]},{"type":"error","name":"OrderBookVault__InsufficientRemainingInput","inputs":[]},{"type":"error","name":"OrderBookVault__InvalidAddress","inputs":[]},{"type":"error","name":"OrderBookVault__InvalidAmount","inputs":[]},{"type":"error","name":"OrderBookVault__InvalidCadence","inputs":[]},{"type":"error","name":"OrderBookVault__InvalidSchedule","inputs":[]},{"type":"error","name":"OrderBookVault__InvalidStatus","inputs":[]},{"type":"error","name":"OrderBookVault__InvalidTokenPair","inputs":[]},{"type":"error","name":"OrderBookVault__NotExecutor","inputs":[]},{"type":"error","name":"OrderBookVault__NotHook","inputs":[]},{"type":"error","name":"OrderBookVault__NotOrderOwner","inputs":[]},{"type":"error","name":"OrderBookVault__PendingSliceExists","inputs":[]},{"type":"error","name":"OrderBookVault__PendingSliceMissing","inputs":[]},{"type":"error","name":"OrderBookVault__SliceMismatch","inputs":[]},{"type":"error","name":"OwnableInvalidOwner","inputs":[{"name":"owner","type":"address","internalType":"address"}]},{"type":"error","name":"OwnableUnauthorizedAccount","inputs":[{"name":"account","type":"address","internalType":"address"}]},{"type":"error","name":"ReentrancyGuardReentrantCall","inputs":[]},{"type":"error","name":"SafeERC20FailedOperation","inputs":[{"name":"token","type":"address","internalType":"address"}]}],"bytecode":{"object":"0x608060405234801561000f575f5ffd5b50604051612fae380380612fae83398101604081905261002e916100dc565b806001600160a01b03811661005c57604051631e4fbdf760e01b81525f600482015260240160405180910390fd5b61006581610071565b50506001600255610109565b600180546001600160a01b031916905561008a8161008d565b50565b5f80546001600160a01b038381166001600160a01b0319831681178455604051919092169283917f8be0079c531659141344cd1fd0a4f28419497f9722a3daafe3b4186f6b6457e09190a35050565b5f602082840312156100ec575f5ffd5b81516001600160a01b0381168114610102575f5ffd5b9392505050565b612e98806101165f395ff3fe608060405234801561000f575f5ffd5b5060043610610132575f3560e01c806379ba5097116100b4578063affb63bf11610079578063affb63bf146102d2578063c34c08e514610304578063d73d987814610317578063e30c397814610426578063e72aff3f14610437578063f2fde38b14610458575f5ffd5b806379ba5097146102695780637f5a7c7b146102715780638da5cb5b1461029c57806395c6017b146102ac578063add1d6fe146102bf575f5ffd5b80635778472a116100fa5780635778472a146101ba5780636437ecfc146101da578063715018a6146102235780637489ec231461022b57806377cf0b521461023e575f5ffd5b80631c3c0ea8146101365780632e01e9321461014b5780633ca9cc7d146101745780633dfd3873146101945780634c7c4dcb146101a7575b5f5ffd5b6101496101443660046126dd565b61046b565b005b61015e61015936600461272f565b6104eb565b60405161016b91906127ae565b60405180910390f35b6101876101823660046127ce565b6106a3565b60405161016b9190612811565b6101496101a23660046126dd565b6108ce565b6101876101b53660046127ce565b61094e565b6101cd6101c8366004612862565b61097d565b60405161016b9190612899565b61020b6101e83660046126dd565b6001600160a01b03165f908152600560205260409020546001600160401b031690565b6040516001600160401b03909116815260200161016b565b610149610c63565b610149610239366004612862565b610c76565b61025161024c366004612b38565b610df7565b6040516001600160801b03909116815260200161016b565b610149610f72565b600654610284906001600160a01b031681565b6040516001600160a01b03909116815260200161016b565b5f546001600160a01b0316610284565b6101496102ba366004612b71565b610fb8565b6102516102cd366004612b9b565b611076565b6102e56102e0366004612bbc565b611265565b6040805192151583526001600160a01b0390911660208301520161016b565b600754610284906001600160a01b031681565b6103c3610325366004612862565b6040805160a0810182525f80825260208201819052918101829052606081018290526080810191909152505f90815260046020908152604091829020825160a08101845281546001600160801b038082168352600160801b9091041692810192909252600101546001600160401b03811692820192909252600160401b820462ffffff166060820152600160581b90910460ff161515608082015290565b60405161016b91905f60a0820190506001600160801b0383511682526001600160801b0360208401511660208301526001600160401b03604084015116604083015262ffffff606084015116606083015260808301511515608083015292915050565b6001546001600160a01b0316610284565b61044a610445366004612bfb565b61165d565b60405190815260200161016b565b6101496104663660046126dd565b611b7a565b610473611bea565b6001600160a01b03811661049a576040516302b2c78160e41b815260040160405180910390fd5b600780546001600160a01b038381166001600160a01b0319831681179093556040519116919082907f0ef3c7eb9dbcf33ddf032f4cce366a07eda85eed03e3172e4a90c4cc16d57886905f90a35050565b6006545f906001600160a01b031633146105075750600761069a565b5f868152600360205260409020805461052457600791505061069a565b83816002015414158061054a5750600481015460ff600160a01b90910416151583151514155b1561055957600791505061069a565b5f6009820154600160981b900460ff16600381111561057a5761057a612786565b146105ba5760036009820154600160981b900460ff1660038111156105a1576105a1612786565b036105b057600291505061069a565b600891505061069a565b6007810154610100900464ffffffffff164210156105dc57600191505061069a565b6007810154600160301b900464ffffffffff1642111561060057600291505061069a565b5f8781526004602052604090206001810154600160581b900460ff1661062b5760079250505061069a565b60018101546001600160401b038881169116141580610657575080546001600160801b03878116911614155b156106675760079250505061069a565b6009820154600182015462ffffff918216600160401b90910490911611156106945760049250505061069a565b5f925050505b95945050505050565b604080516080810182525f8082526020820181905291810182905260608101919091526007546001600160a01b031633146106f157604051632e776f0760e21b815260040160405180910390fd5b6106f9611c16565b61070585858585611c3e565b5f8681526003602052604081209192508251600881111561072857610728612786565b146108235760028251600881111561074257610742612786565b14801561076d57505f6009820154600160981b900460ff16600381111561076b5761076b612786565b145b156107cc5760098101805460ff60981b1916600360981b179055600a81018054600191905f906107a79084906001600160401b0316612c29565b92506101000a8154816001600160401b0302191690836001600160401b031602179055505b600a810154825160405188927fb3dde0287222b49b4bbdfbd414c2ffd0c3624d21a3f2803e40d0b130ae277d769261081592600160401b9092046001600160401b031691612c48565b60405180910390a2506108bc565b5f8681526004602090815260409182902090840151918401516001600160801b03908116600160801b0292169182178155606084015160018201805460ff60581b1962ffffff8a16600160401b026affffffffffffffffffffff199092166001600160401b03909416939093171791909116600160581b179055600383015490916108b9916001600160a01b0316903390611fdc565b50505b6108c66001600255565b949350505050565b6108d6611bea565b6001600160a01b0381166108fd576040516302b2c78160e41b815260040160405180910390fd5b600680546001600160a01b038381166001600160a01b0319831681179093556040519116919082907f28f7fb7e7a8b1239a2210fff0089ce39da0362e2dd2eecaa013a8996a37a2279905f90a35050565b604080516080810182525f80825260208201819052918101829052606081019190915261069a85858585611c3e565b60408051610340810182525f80825260208201819052918101829052606081018290526080810182905260a0810182905260c0810182905260e08101829052610100810182905261012081018290526101408101829052610160810182905261018081018290526101a081018290526101c081018290526101e08101829052610200810182905261022081018290526102408101829052610260810182905261028081018290526102a081018290526102c081018290526102e0810182905261030081018290526103208101919091525f82815260036020818152604092839020835161034081018552815481526001808301546001600160a01b039081169483019490945260028301549582019590955292810154821660608401526004810154918216608084015260ff600160a01b9092048216151560a084015260058101546001600160801b0380821660c0860152600160801b91829004811660e0860152600683015480821661010087015291909104166101208401526007810154929390926101408501921690811115610b1857610b18612786565b6001811115610b2957610b29612786565b8152600782015461010080820464ffffffffff9081166020850152600160301b8304166040840152600160581b820463ffffffff9081166060850152600160781b909204909116608083015260088301546001600160801b0380821660a0850152600160801b909104811660c0840152600984015462ffffff811660e0850152630100000081049091169183019190915261012090910190600160981b900460ff166003811115610bdc57610bdc612786565b6003811115610bed57610bed612786565b81526009820154600160a01b90046001600160401b039081166020830152600a8301548082166040840152600160401b810482166060840152600160801b81049091166080830152600160c01b900464ffffffffff1660a0820152600b909101546001600160a01b031660c09091015292915050565b610c6b611bea565b610c745f612040565b565b610c7e611c16565b5f8181526003602052604090208054610caa5760405163447afd4b60e01b815260040160405180910390fd5b60018101546001600160a01b03163314610cd757604051637e6da65960e11b815260040160405180910390fd5b5f6009820154600160981b900460ff166003811115610cf857610cf8612786565b14610d165760405163447afd4b60e01b815260040160405180910390fd5b5f82815260046020526040902060010154600160581b900460ff1615610d4f5760405163e306b42360e01b815260040160405180910390fd5b60098101805460ff60981b1916600160981b179055600a81018054600191905f90610d849084906001600160401b0316612c29565b92506101000a8154816001600160401b0302191690836001600160401b03160217905550336001600160a01b0316827fa6eb7cdc219e1518ced964e9a34e61d68a94e4f1569db3e84256ba981ba5275360405160405180910390a3610de98233612059565b50610df46001600255565b50565b5f610e00611c16565b5f8481526003602052604090208054610e2c5760405163447afd4b60e01b815260040160405180910390fd5b60018101546001600160a01b03163314610e5957604051637e6da65960e11b815260040160405180910390fd5b6001600160a01b038316610e80576040516302b2c78160e41b815260040160405180910390fd5b60068101545f90610ea3906001600160801b03600160801b820481169116612c65565b9050846001600160801b03165f03610eb9578094505b6001600160801b0385161580610ee05750806001600160801b0316856001600160801b0316115b15610efe576040516302dd777b60e31b815260040160405180910390fd5b848260060160108282829054906101000a90046001600160801b0316610f249190612c84565b82546101009290920a6001600160801b038181021990931691831602179091556004840154610f6192506001600160a01b03169086908816611fdc565b5050600160025550815b9392505050565b60015433906001600160a01b03168114610faf5760405163118cdaa760e01b81526001600160a01b03821660048201526024015b60405180910390fd5b610df481612040565b6007546001600160a01b03163314610fe357604051632e776f0760e21b815260040160405180910390fd5b5f8281526004602052604090206001810154600160581b900460ff1661101c576040516340ce663760e01b815260040160405180910390fd5b60018101546001600160401b0383811691161461104c576040516351a4ea8760e01b815260040160405180910390fd5b50505f90815260046020526040812090815560010180546bffffffffffffffffffffffff19169055565b5f61107f611c16565b5f83815260036020526040902080546110ab5760405163447afd4b60e01b815260040160405180910390fd5b60018101546001600160a01b031633146110d857604051637e6da65960e11b815260040160405180910390fd5b6001600160a01b0383166110ff576040516302b2c78160e41b815260040160405180910390fd5b5f84815260046020526040902060010154600160581b900460ff16156111385760405163e306b42360e01b815260040160405180910390fd5b5f6009820154600160981b900460ff16600381111561115957611159612786565b036111ea576007810154600160301b900464ffffffffff1642116111905760405163447afd4b60e01b815260040160405180910390fd5b60098101805460ff60981b1916600360981b179055600a81018054600191905f906111c59084906001600160401b0316612c29565b92506101000a8154816001600160401b0302191690836001600160401b031602179055505b6005810154600160801b90046001600160801b031691505f82900361122257604051635f3724b160e01b815260040160405180910390fd5b6005810180546001600160801b039081169091556003820154611254916001600160a01b039091169085908516611fdc565b5061125f6001600255565b92915050565b6006545f9081906001600160a01b0316331461129457604051636c521ab960e11b815260040160405180910390fd5b61129c611c16565b5f8681526003602090815260408083206004909252822090916009830154600160981b900460ff1660038111156112d5576112d5612786565b146112f35760405163447afd4b60e01b815260040160405180910390fd5b6001810154600160581b900460ff1661131f576040516340ce663760e01b815260040160405180910390fd5b60018101546001600160401b03888116911614158061134b575080546001600160801b03878116911614155b15611369576040516351a4ea8760e01b815260040160405180910390fd5b80546001600160801b03600160801b9091048116908616101561139f576040516347fb9f1360e01b815260040160405180910390fd5b60058201546001600160801b03600160801b909104811690871611156113d8576040516347fb9f1360e01b815260040160405180910390fd5b5f88815260046020526040812090815560010180546bffffffffffffffffffffffff19169055600582018054879190601090611425908490600160801b90046001600160801b0316612c65565b92506101000a8154816001600160801b0302191690836001600160801b0316021790555084826006015f8282829054906101000a90046001600160801b031661146e9190612c84565b92506101000a8154816001600160801b0302191690836001600160801b03160217905550600182600a0160088282829054906101000a90046001600160401b03166114b99190612c29565b82546101009290920a6001600160401b03818102199093169183160217909155600a840180546cffffffffffffffffffffffffff60801b1916600160801b43909316830264ffffffffff60c01b191617600160c01b4264ffffffffff16021790556005840154046001600160801b03165f0390506116485760098201805460ff60981b1916600160991b179055600a82018054600191905f906115669084906001600160401b0316612c29565b82546101009290920a6001600160401b0381810219909316919092169190910217905550600582015460068301546115bf916001600160801b03169060601b6fffffffffffffffffffffffffffffffff60601b16612ca3565b60058301546006840154604080516001600160801b0393841681529290911660208301526001600160a01b03831682820152516001965091945089917fb95b19f9722751d4ef43eb4a64ebbd3f20dec392726d883093fa0d3cd1fe4d439181900360600190a260058201546006830154611648918a916001600160801b039182169116866120e6565b50506116546001600255565b94509492505050565b5f611666611c16565b61166f8261218b565b335f908152600560205260409020546001600160401b0316611692816001612c29565b335f81815260056020908152604091829020805467ffffffffffffffff19166001600160401b0395909516949094179093559091839146918735916116dc919089019089016126dd565b6116ec6060890160408a016126dd565b6116fc60a08a0160808b01612cc2565b61170c60c08b0160a08c01612cdb565b61171c60e08c0160c08d01612cf9565b61172d6101008d0160e08e01612cf9565b306040516020016117489b9a99989796959493929190612d1d565b60408051601f1981840301815291815281516020928301205f818152600384528290208181556001810180546001600160a01b03191633179055863560028201559094509161179b9186019086016126dd565b6003820180546001600160a01b0319166001600160a01b03929092169190911790556117cd60608501604086016126dd565b6004820180546001600160a01b0319166001600160a01b03929092169190911790556117ff6080850160608601612dae565b600482018054911515600160a01b0260ff60a01b1990921691909117905561182d60a0850160808601612cc2565b6005820180546001600160801b0319166001600160801b039290921691909117905561185f60a0850160808601612cc2565b6005820180546001600160801b03928316600160801b02921691909117905561188e60c0850160a08601612cdb565b60078201805460ff1916600183818111156118ab576118ab612786565b02179055506118c060e0850160c08601612cf9565b60078201805465ffffffffff00191661010064ffffffffff9390931683021790556118f090850160e08601612cf9565b60078201805464ffffffffff92909216600160301b026affffffffff0000000000001990921691909117905561192e61012085016101008601612dc9565b60078201805463ffffffff92909216600160581b0263ffffffff60581b1990921691909117905561196761014085016101208601612dc9565b60078201805463ffffffff92909216600160781b0263ffffffff60781b199092169190911790556119a061016085016101408601612cc2565b6008820180546001600160801b0319166001600160801b03929092169190911790556119d461018085016101608601612cc2565b6008820180546001600160801b03928316600160801b029216919091179055611a056101a085016101808601612dec565b60098201805462ffffff191662ffffff92909216919091179055611a316101c085016101a08601612cc2565b6009820180546001600160801b039290921663010000000268ffffffffffffffffff60981b19166301000000600160e01b031990921691909117600160a01b6001600160401b03851602179055600a810180546001600160801b0319169055611aa26101e085016101c086016126dd565b600b820180546001600160a01b0319166001600160a01b0392909216919091179055611b033330611ad960a0880160808901612cc2565b6001600160801b0316611af26040890160208a016126dd565b6001600160a01b031692919061247e565b833533847f81bed46f3394c5b72a6081e944d2f16fd3d5d9ae08034008ce1fe8929114111c611b3860c0890160a08a01612cdb565b604051611b459190612e05565b60405180910390a4611b6983338635611b6460c0890160a08a01612cdb565b6124b7565b5050611b756001600255565b919050565b611b82611bea565b600180546001600160a01b0383166001600160a01b03199091168117909155611bb25f546001600160a01b031690565b6001600160a01b03167f38d16b8cac22d99fc7c124b9cd0de2d3fa1faef420bfe791d8c362d765e2270060405160405180910390a350565b5f546001600160a01b03163314610c745760405163118cdaa760e01b8152336004820152602401610fa6565b6002805403611c3857604051633ee5aeb560e01b815260040160405180910390fd5b60028055565b604080516080810182525f8082526020820181905291810182905260608101919091525f8581526003602052604090208054611c95578160075b90816008811115611c8b57611c8b612786565b81525050506108c6565b84816002015414611ca857816007611c78565b60026009820154600160981b900460ff166003811115611cca57611cca612786565b03611cd757816008611c78565b60016009820154600160981b900460ff166003811115611cf957611cf9612786565b03611d0657816007611c78565b60036009820154600160981b900460ff166003811115611d2857611d28612786565b03611d3557816002611c78565b600b8101546001600160a01b031615801590611d615750600b8101546001600160a01b03848116911614155b15611d6e57816007611c78565b6007810154610100900464ffffffffff16421015611d8e57816001611c78565b6007810154600160301b900464ffffffffff16421115611db057816002611c78565b5f86815260046020526040902060010154600160581b900460ff1615611dd857816003611c78565b600981015462ffffff9081169085161115611df557816004611c78565b5f600782015460ff166001811115611e0f57611e0f612786565b03611e8157600a810154600160801b90046001600160401b031615801590611e6f57506007810154600a820154611e6391600160781b900463ffffffff1690600160801b90046001600160401b0316612c29565b6001600160401b031643105b15611e7c57816003611c78565b611ee3565b600a810154600160c01b900464ffffffffff1615801590611ed657506007810154600a820154611ecc91600160581b900463ffffffff1690600160c01b900464ffffffffff16612e13565b64ffffffffff1642105b15611ee357816003611c78565b6005810154600160801b90046001600160801b03165f819003611f22578260085b90816008811115611f1757611f17612786565b8152505050506108c6565b60088201546001600160801b039081169082161115611f4b575060088101546001600160801b03165b60088201546001600160801b03600160801b9091048116908216108015611f89575060058201546001600160801b03828116600160801b9092041614155b15611f9657826006611f04565b5f83526001600160801b039081166020840152600982015463010000009004166040830152600a0154600160401b90046001600160401b03166060820152949350505050565b6040516001600160a01b0383811660248301526044820183905261203b91859182169063a9059cbb906064015b604051602081830303815290604052915060e01b6020820180516001600160e01b038381831617835250505050612515565b505050565b600180546001600160a01b0319169055610df481612576565b6006546001600160a01b031680158061207a57506001600160a01b0381163b155b1561208457505050565b604051631a4ffda560e11b8152600481018490526001600160a01b03838116602483015282169063349ffb4a906044015f604051808303815f87803b1580156120cb575f5ffd5b505af19250505080156120dc575060015b1561203b57505050565b6006546001600160a01b031680158061210757506001600160a01b0381163b155b156121125750612185565b604051633f5077e360e21b8152600481018690526001600160801b038086166024830152841660448201526001600160a01b03838116606483015282169063fd41df8c906084015b5f604051808303815f87803b158015612171575f5ffd5b505af1925050508015612182575060015b50505b50505050565b5f61219c60408301602084016126dd565b6001600160a01b031614806121c857505f6121bd60608301604084016126dd565b6001600160a01b0316145b156121e6576040516302b2c78160e41b815260040160405180910390fd5b6121f660608201604083016126dd565b6001600160a01b031661220f60408301602084016126dd565b6001600160a01b031603612236576040516347f3229560e01b815260040160405180910390fd5b61224660a0820160808301612cc2565b6001600160801b03161580612273575061226861016082016101408301612cc2565b6001600160801b0316155b80612296575061228b61018082016101608301612cc2565b6001600160801b0316155b156122b4576040516347fb9f1360e01b815260040160405180910390fd5b6122c661018082016101608301612cc2565b6001600160801b03166122e161016083016101408401612cc2565b6001600160801b03161080612327575061230160a0820160808301612cc2565b6001600160801b031661231c61018083016101608401612cc2565b6001600160801b0316115b15612345576040516347fb9f1360e01b815260040160405180910390fd5b612356610100820160e08301612cf9565b64ffffffffff1661236d60e0830160c08401612cf9565b64ffffffffff1610158061239857504261238e610100830160e08401612cf9565b64ffffffffff1611155b156123b6576040516307f5325b60e21b815260040160405180910390fd5b6123c86101a082016101808301612dec565b62ffffff1615806123f057506127106123e96101a083016101808401612dec565b62ffffff16115b1561240e576040516347fb9f1360e01b815260040160405180910390fd5b5f61241f60c0830160a08401612cdb565b600181111561243057612430612786565b0361246c5761244761014082016101208301612dc9565b63ffffffff165f03610df45760405163ece4f4a760e01b815260040160405180910390fd5b61244761012082016101008301612dc9565b6040516001600160a01b0384811660248301528381166044830152606482018390526121859186918216906323b872dd90608401612009565b6006546001600160a01b03168015806124d857506001600160a01b0381163b155b156124e35750612185565b604051631e540e3160e01b81526001600160a01b03821690631e540e319061215a908890889088908890600401612e30565b5f6125296001600160a01b038416836125c5565b905080515f1415801561254d57508080602001905181019061254b9190612e5a565b155b1561203b57604051635274afe760e01b81526001600160a01b0384166004820152602401610fa6565b5f80546001600160a01b038381166001600160a01b0319831681178455604051919092169283917f8be0079c531659141344cd1fd0a4f28419497f9722a3daafe3b4186f6b6457e09190a35050565b6060610f6b83835f845f5f856001600160a01b031684866040516125e99190612e75565b5f6040518083038185875af1925050503d805f8114612623576040519150601f19603f3d011682016040523d82523d5f602084013e612628565b606091505b5091509150612638868383612642565b9695505050505050565b606082612657576126528261269e565b610f6b565b815115801561266e57506001600160a01b0384163b155b1561269757604051639996b31560e01b81526001600160a01b0385166004820152602401610fa6565b5080610f6b565b8051156126ae5780518082602001fd5b604051630a12f52160e11b815260040160405180910390fd5b80356001600160a01b0381168114611b75575f5ffd5b5f602082840312156126ed575f5ffd5b610f6b826126c7565b80356001600160401b0381168114611b75575f5ffd5b80356001600160801b0381168114611b75575f5ffd5b8015158114610df4575f5ffd5b5f5f5f5f5f60a08688031215612743575f5ffd5b85359450612753602087016126f6565b93506127616040870161270c565b925060608601359150608086013561277881612722565b809150509295509295909350565b634e487b7160e01b5f52602160045260245ffd5b600981106127aa576127aa612786565b9052565b6020810161125f828461279a565b803562ffffff81168114611b75575f5ffd5b5f5f5f5f608085870312156127e1575f5ffd5b84359350602085013592506127f8604086016127bc565b9150612806606086016126c7565b905092959194509250565b5f60808201905061282382845161279a565b6001600160801b0360208401511660208301526001600160801b0360408401511660408301526001600160401b03606084015116606083015292915050565b5f60208284031215612872575f5ffd5b5035919050565b600281106127aa576127aa612786565b600481106127aa576127aa612786565b815181526020808301516103408301916128bd908401826001600160a01b03169052565b506040830151604083015260608301516128e260608401826001600160a01b03169052565b5060808301516128fd60808401826001600160a01b03169052565b5060a083015161291160a084018215159052565b5060c083015161292c60c08401826001600160801b03169052565b5060e083015161294760e08401826001600160801b03169052565b506101008301516129646101008401826001600160801b03169052565b506101208301516129816101208401826001600160801b03169052565b50610140830151612996610140840182612879565b506101608301516129b161016084018264ffffffffff169052565b506101808301516129cc61018084018264ffffffffff169052565b506101a08301516129e66101a084018263ffffffff169052565b506101c0830151612a006101c084018263ffffffff169052565b506101e0830151612a1d6101e08401826001600160801b03169052565b50610200830151612a3a6102008401826001600160801b03169052565b50610220830151612a5361022084018262ffffff169052565b50610240830151612a706102408401826001600160801b03169052565b50610260830151612a85610260840182612889565b50610280830151612aa26102808401826001600160401b03169052565b506102a0830151612abf6102a08401826001600160401b03169052565b506102c0830151612adc6102c08401826001600160401b03169052565b506102e0830151612af96102e08401826001600160401b03169052565b50610300830151612b1461030084018264ffffffffff169052565b50610320830151612b316103208401826001600160a01b03169052565b5092915050565b5f5f5f60608486031215612b4a575f5ffd5b83359250612b5a6020850161270c565b9150612b68604085016126c7565b90509250925092565b5f5f60408385031215612b82575f5ffd5b82359150612b92602084016126f6565b90509250929050565b5f5f60408385031215612bac575f5ffd5b82359150612b92602084016126c7565b5f5f5f5f60808587031215612bcf575f5ffd5b84359350612bdf602086016126f6565b9250612bed6040860161270c565b91506128066060860161270c565b5f6101e0828403128015612c0d575f5ffd5b509092915050565b634e487b7160e01b5f52601160045260245ffd5b6001600160401b03818116838216019081111561125f5761125f612c15565b6001600160401b038316815260408101610f6b602083018461279a565b6001600160801b03828116828216039081111561125f5761125f612c15565b6001600160801b03818116838216019081111561125f5761125f612c15565b5f82612cbd57634e487b7160e01b5f52601260045260245ffd5b500490565b5f60208284031215612cd2575f5ffd5b610f6b8261270c565b5f60208284031215612ceb575f5ffd5b813560028110610f6b575f5ffd5b5f60208284031215612d09575f5ffd5b813564ffffffffff81168114610f6b575f5ffd5b6001600160a01b038c811682526001600160401b038c166020830152604082018b9052606082018a90528881166080830152871660a08201526001600160801b03861660c08201526101608101612d7760e0830187612879565b64ffffffffff85811661010084015284166101208301526001600160a01b0383166101408301529c9b505050505050505050505050565b5f60208284031215612dbe575f5ffd5b8135610f6b81612722565b5f60208284031215612dd9575f5ffd5b813563ffffffff81168114610f6b575f5ffd5b5f60208284031215612dfc575f5ffd5b610f6b826127bc565b6020810161125f8284612879565b64ffffffffff818116838216019081111561125f5761125f612c15565b8481526001600160a01b0384166020820152604081018390526080810161069a6060830184612879565b5f60208284031215612e6a575f5ffd5b8151610f6b81612722565b5f82518060208501845e5f92019182525091905056fea164736f6c634300081e000a","linkReferences":{}},"methodIdentifiers":{"acceptOwnership()":"79ba5097","cancelOrder(bytes32)":"7489ec23","claimOutput(bytes32,uint128,address)":"77cf0b52","clearPendingSlice(bytes32,uint64)":"95c6017b","createOrder((bytes32,address,address,bool,uint128,uint8,uint40,uint40,uint32,uint32,uint128,uint128,uint24,uint128,address))":"e72aff3f","currentNonce(address)":"6437ecfc","executor()":"c34c08e5","getOrder(bytes32)":"5778472a","getPendingSlice(bytes32)":"d73d9878","hook()":"7f5a7c7b","owner()":"8da5cb5b","pendingOwner()":"e30c3978","previewNextSlice(bytes32,bytes32,uint24,address)":"4c7c4dcb","recordAfterSwap(bytes32,uint64,uint128,uint128)":"affb63bf","renounceOwnership()":"715018a6","reserveNextSlice(bytes32,bytes32,uint24,address)":"3ca9cc7d","setExecutor(address)":"1c3c0ea8","setHook(address)":"3dfd3873","transferOwnership(address)":"f2fde38b","validateHookExecution(bytes32,uint64,uint128,bytes32,bool)":"2e01e932","withdrawRemainingInput(bytes32,address)":"add1d6fe"},"id":87}